:020000040800F2
:10000000180601209D0100082B4B0008432E000814
:10001000D14600082F1200083DA70008000000008C
:10002000000000000000000000000000D164000893
:10003000451D000800000000290A00082D6700087F
:10004000B7010008B7010008B7010008B7010008B0
:10005000B7010008B7010008152600086926000846
:10006000B7010008B7010008B7010008A51A000889
:10007000B7010008B7010008B7010008B701000880
:10008000B7010008B7010008B7010008B701000870
:10009000B7010008B7010008B7010008B701000860
:1000A000B7010008B7010008B7010008B701000850
:1000B00099670008B7010008A1670008B7010008A8
:1000C000B7010008B7010008B7010008B701000830
:1000D000B7010008B7010008B7010008D56800089B
:1000E000B7010008B7010008B7010008B701000810
:1000F000B7010008B7010008B7010008AD1A0008F1
:10010000B7010008B7010008B701000899630008AB
:10011000B7010008B7010008B7010008B7010008DF
:10012000B7010008B7010008B7010008B7010008CF
:10013000B7010008B7010008B7010008B7010008BF
:10014000B7010008B7010008B7010008595A0008B4
:10015000B7010008B7010008B7010008B70100089F
:10016000B7010008B7010008B7010008B70100088F
:10017000B7010008B7010008B7010008B70100087F
:10018000B7010008B7010008DFF80CD000F024FD2B
:1001900000480047A5D800081806012006488047F7
:1001A00006480047FEE7FEE7FEE7FEE7FEE7FEE75C
:1001B000FEE7FEE7FEE7FEE73D670008890100086D
:1001C00081FB0020704770472DE9F04F82B001900D
:1001D0004FF000744FF000784FF000054FF0000929
:1001E00052F804CB52F804EB0868CB6DC0FB0C4509
:1001F000D1F88000CEF1000EC3FB0E45D1F8DC3003
:10020000C0FB0C89C3FB0E8952F804CB52F804EBF7
:1002100048688B6DC0FB0C45D1F88400CEF1000E10
:10022000C3FB0E45D1F8D830C0FB0C89C3FB0E8947
:1002300052F804CB52F804EB88684B6DC0FB0C45B8
:10024000D1F88800CEF1000EC3FB0E45D1F8D430B2
:10025000C0FB0C89C3FB0E8952F804CB52F804EBA7
:10026000C8680B6DC0FB0C45D1F88C00CEF1000EB8
:10027000C3FB0E45D1F8D030C0FB0C89C3FB0E89FF
:1002800052F804CB52F804EB0869CB6CC0FB0C4568
:10029000D1F89000CEF1000EC3FB0E45D1F8CC3062
:1002A000C0FB0C89C3FB0E8952F804CB52F804EB57
:1002B00048698B6CC0FB0C45D1F89400CEF1000E60
:1002C000C3FB0E45D1F8C830C0FB0C89C3FB0E89B7
:1002D00052F804CB52F804EB88694B6CC0FB0C4518
:1002E000D1F89800CEF1000EC3FB0E45D1F8C43012
:1002F000C0FB0C89C3FB0E8952F804CB52F804EB07
:10030000C8690B6CC0FB0C45D1F89C00CEF1000E07
:10031000C3FB0E45D1F8C030C0FB0C89C3FB0E896E
:1003200001984FF4FE4E4EF0FF0E4FEA946444EAFB
:1003300085144FEAE47CBCEBE43F18BF8CEA0E0462
:100340004FEA986848EA89184FEAE87CBCEBE83F36
:1003500018BF8CEA0E080480A0F8028002F57072C3
:1003600001F580514FF000744FF000784FF0000518
:100370004FF0000952F804CB0868D1F88030C0FB78
:100380000C45C3FB0C8952F804CB4868D1F8843083
:10039000C0FB0C45C3FB0C8952F804CB8868D1F82C
:1003A0008830C0FB0C45C3FB0C8952F804CBC868ED
:1003B000D1F88C30C0FB0C45C3FB0C8952F804CB40
:1003C0000869D1F89030C0FB0C45C3FB0C8952F88A
:1003D00004CB4869D1F89430C0FB0C45C3FB0C89B1
:1003E00052F804CB8869D1F89830C0FB0C45C3FBA8
:1003F0000C8952F804CBC869D1F89C30C0FB0C457D
:10040000C3FB0C8901984FF4FE4E4EF0FF0E4FEAED
:10041000946444EA85144FEAE47CBCEBE43F18BFE3
:100420008CEA0E044FEA986848EA89184FEAE87C9B
:10043000BCEBE83F18BF8CEA0E08A0F84040A0F8DB
:100440004280A2F57872A1F570614FF00F0C00F1B7
:100450000400CDF800C001904FF000744FF0007818
:100460004FF000764FF0007A4FF000054FF0000992
:100470004FF000074FF0000B52F804CB52F804EB9A
:100480000868CB6DC0FB0C45C0FB0E67CEF1000EBB
:10049000C3FB0C67C3FB0E45D1F8DC30D1F88000FC
:1004A000C3FB0E89C3FB0CABCEF1000EC0FB0C8965
:1004B000C0FB0EAB52F804CB52F804EB48688B6DCE
:1004C000C0FB0C45C0FB0E67CEF1000EC3FB0C67F2
:1004D000C3FB0E45D1F8D830D1F88400C3FB0E8998
:1004E000C3FB0CABCEF1000EC0FB0C89C0FB0EAB06
:1004F00052F804CB52F804EB88684B6DC0FB0C45F6
:10050000C0FB0E67CEF1000EC3FB0C67C3FB0E45AC
:10051000D1F8D430D1F88800C3FB0E89C3FB0CABF3
:10052000CEF1000EC0FB0C89C0FB0EAB52F804CB21
:1005300052F804EBC8680B6DC0FB0C45C0FB0E679E
:10054000CEF1000EC3FB0C67C3FB0E45D1F8D030D3
:10055000D1F88C00C3FB0E89C3FB0CABCEF1000EAF
:10056000C0FB0C89C0FB0EAB52F804CB52F804EB75
:100570000869CB6CC0FB0C45C0FB0E67CEF1000ECA
:10058000C3FB0C67C3FB0E45D1F8CC30D1F890000B
:10059000C3FB0E89C3FB0CABCEF1000EC0FB0C8974
:1005A000C0FB0EAB52F804CB52F804EB48698B6CDD
:1005B000C0FB0C45C0FB0E67CEF1000EC3FB0C6701
:1005C000C3FB0E45D1F8C830D1F89400C3FB0E89A7
:1005D000C3FB0CABCEF1000EC0FB0C89C0FB0EAB15
:1005E00052F804CB52F804EB88694B6CC0FB0C4505
:1005F000C0FB0E67CEF1000EC3FB0C67C3FB0E45BC
:10060000D1F8C430D1F89800C3FB0E89C3FB0CAB02
:10061000CEF1000EC0FB0C89C0FB0EAB52F804CB30
:1006200052F804EBC8690B6CC0FB0C45C0FB0E67AD
:10063000CEF1000EC3FB0C67C3FB0E45D1F8C030F2
:10064000D1F89C00C3FB0E89C3FB0CABCEF1000EAE
:10065000C0FB0C89C0FB0EAB01F5807101984FF413
:10066000FE4E4EF0FF0E4FEA946444EA85144FEAC2
:10067000E47CBCEBE43F18BF8CEA0E044FEA9868B8
:1006800048EA89184FEAE87CBCEBE83F18BF8CEADF
:100690000E084FEA966646EA87164FEAE67CBCEB00
:1006A000E63F18BF8CEA0E064FEA9A6A4AEA8B1AAE
:1006B0004FEAEA7CBCEBEA3F18BF8CEA0E0ADDF891
:1006C00000C000EBCC0E2EF8026B2EF802AB20F827
:1006D000024B20F8028BBCF1010C7FF4BAAE02B0E1
:1006E000BDE8F08F2DE9F04F82B001904FF000741B
:1006F0004FF0000552F804CB52F804EB0868CB6DBC
:10070000CEF1000EC0FB0C45C3FB0E4552F804CBE6
:1007100052F804EB48688B6DCEF1000EC0FB0C451F
:10072000C3FB0E4552F804CB52F804EB88684B6DBE
:10073000CEF1000EC0FB0C45C3FB0E4552F804CBB6
:1007400052F804EBC8680B6DCEF1000EC0FB0C45EF
:10075000C3FB0E4552F804CB52F804EB0869CB6C8E
:10076000CEF1000EC0FB0C45C3FB0E4552F804CB86
:1007700052F804EB48698B6CCEF1000EC0FB0C45BF
:10078000C3FB0E4552F804CB52F804EB88694B6C5E
:10079000CEF1000EC0FB0C45C3FB0E4552F804CB56
:1007A00052F804EBC8690B6CCEF1000EC0FB0C458F
:1007B000C3FB0E4501984FF4FE4E4EF0FF0E4FEA7C
:1007C000946444EA85144FEAE47CBCEBE43F18BF30
:1007D0008CEA0E04048002F5707201F580514FF02E
:1007E00000744FF0000552F804CB0868C0FB0C45BC
:1007F00052F804CB4868C0FB0C4552F804CB88681B
:10080000C0FB0C4552F804CBC868C0FB0C4552F83D
:1008100004CB0869C0FB0C4552F804CB4869C0FB07
:100820000C4552F804CB8869C0FB0C4552F804CB48
:10083000C869C0FB0C4501984FF4FE4E4EF0FF0E08
:100840004FEA946444EA85144FEAE47CBCEBE43F4D
:1008500018BF8CEA0E040484A2F57872A1F57061C9
:100860004FF00F0C00F10200CDF800C001904FF0E6
:1008700000744FF000764FF000054FF0000752F87B
:1008800004CB52F804EB0868CB6DC0FB0C45C0FBF1
:100890000E67CEF1000EC3FB0E45C3FB0C6752F88A
:1008A00004CB52F804EB48688B6DC0FB0C45C0FBD1
:1008B0000E67CEF1000EC3FB0E45C3FB0C6752F86A
:1008C00004CB52F804EB88684B6DC0FB0C45C0FBB1
:1008D0000E67CEF1000EC3FB0E45C3FB0C6752F84A
:1008E00004CB52F804EBC8680B6DC0FB0C45C0FB91
:1008F0000E67CEF1000EC3FB0E45C3FB0C6752F82A
:1009000004CB52F804EB0869CB6CC0FB0C45C0FB70
:100910000E67CEF1000EC3FB0E45C3FB0C6752F809
:1009200004CB52F804EB48698B6CC0FB0C45C0FB50
:100930000E67CEF1000EC3FB0E45C3FB0C6752F8E9
:1009400004CB52F804EB88694B6CC0FB0C45C0FB30
:100950000E67CEF1000EC3FB0E45C3FB0C6752F8C9
:1009600004CB52F804EBC8690B6CC0FB0C45C0FB10
:100970000E67CEF1000EC3FB0E45C3FB0C6701F5FD
:10098000807101984FF4FE4E4EF0FF0E4FEA9464D2
:1009900044EA85144FEAE47CBCEBE43F18BF8CEAE0
:1009A0000E044FEA966646EA87164FEAE67CBCEBF1
:1009B000E63F18BF8CEA0E06DDF800C000EB8C0E97
:1009C0002EF8026B20F8024BBCF1010C7FF44CAF07
:1009D00002B0BDE8F08F0000EFF3108072B67047F0
:1009E00080F310887047264C4FF6FF7525604FF056
:1009F000000484F30988234C4FF001052570224C34
:100A00004FF08055256062B6FEE730B41E4C4FF0C3
:100A10008055256030BC704730B41B4C4FF080557A
:100A2000256030BC704700BF72B6EFF3098050B14B
:100A30001EF0100F08BF20ED108A203880E8F00F5C
:100A400012490968086000B5114880475DF804EB59
:100A5000104811490A7802700C4810490A6802606F
:100A6000106890E8F00F20301EF0100F08BFB0ECB7
:100A7000108A80F309884EF0040E62B6704700BFFA
:100A800022ED00E09E00002004ED00E0A400002024
:100A9000E15200089300002094000020AC000020E8
:100AA0000649074A0868504343F239021044086077
:100AB000400870470149086070470000C0000020EE
:100AC0006D4EC64110B5431A934209D28318881857
:100AD00003E010F8011D03F8011D521EF9D210BDEC
:100AE00040EA01039B0703D009E008C9121F08C0B0
:100AF000042AFAD203E011F8013B00F8013B521E30
:100B0000F9D210BDD2B201E000F8012B491EFBD290
:100B100070470022F6E710B513460A460446194608
:100B2000FFF7F0FF204610BD421E12F8013F002BD8
:100B3000FBD111F8013B02F8013B002BF9D17047C2
:100B400030B505462A460B4612F8010B13F8014B47
:100B500008B1A042F8D01CB1002802D06D1CF1E70A
:100B6000284630BD10B5044604E00B7800F8013B80
:100B700003B1491C521EF8D2204610BD421C10F889
:100B8000011B0029FBD1801A704710B5002200E03C
:100B9000521C835C8C5CA34201D1002BF8D1D8B2EB
:100BA000E1B2401A10BD034611F8012B00F8012BE9
:100BB000002AF9D11846704730B505460020034693
:100BC00000E05B1C934205D2EC5CC85C201A01D1AA
:100BD000002CF6D130BD0000064C074D06E0E06861
:100BE00040F0010394E8070098471034AC42F6D374
:100BF000FFF7CEFAB45B0308F45B030870B58C18FA
:100C000010F8015B15F0070301D110F8013B2A1120
:100C100006D110F8012B03E010F8016B01F8016B0D
:100C20005B1EF9D12B0705D40023521E0DD401F809
:100C3000013BFAE710F8013BCB1A921C03E013F8D2
:100C4000015B01F8015B521EF9D5A142D8D3002007
:100C500070BD00002DE9F84F04460E4637461CE1F2
:100C6000904D4834203CD4F81C80D5F800A02D1DB0
:100C7000D4F82090286800902D1D41465046FFF77B
:100C80009FFA834649460098FFF79AFAABEB0000BB
:100C90004000E06149465046FFF792FA83464146DC
:100CA0000098FFF78DFA584440002062D4F818806D
:100CB000D5F800A02D1DD4F82490286800902D1D93
:100CC00041465046FFF77CFA834649460098FFF7B5
:100CD00077FAABEB00004000A06149465046FFF7B1
:100CE0006FFA834641460098FFF76AFA584440007D
:100CF0006062D4F81480D5F800A02D1DD4F8289097
:100D0000286800902D1D41465046FFF759FA83464A
:100D100049460098FFF754FAABEB000040006061D1
:100D200049465046FFF74CFA834641460098FFF784
:100D300047FA58444000A062D4F81080D5F800A0CB
:100D40002D1DD4F82C90286800902D1D414650464A
:100D5000FFF736FA834649460098FFF731FAABEBC6
:100D600000004000206149465046FFF729FA8346BB
:100D700041460098FFF724FA58444000E062D4F856
:100D80000C80D5F800A02D1DD4F830902868009074
:100D90002D1D41465046FFF713FA834649460098F9
:100DA000FFF70EFAABEB00004000E060494650460A
:100DB000FFF706FA834641460098FFF701FA5844C8
:100DC00040002063D4F80880D5F800A02D1DD4F889
:100DD0003490286800902D1D41465046FFF7F0F9E9
:100DE000834649460098FFF7EBF9ABEB0000400063
:100DF000A06049465046FFF7E3F983464146009814
:100E0000FFF7DEF9584440006063D4F80480D5F859
:100E100000A02D1DD4F83890286800902D1D414663
:100E20005046FFF7CDF9834649460098FFF7C8F9C9
:100E3000ABEB00004000606049465046FFF7C0F948
:100E4000834641460098FFF7BBF958444000A06331
:100E5000D4F80080D5F800A02D1DD4F83C90286867
:100E600000902D1D41465046FFF7AAF9834649469A
:100E70000098FFF7A5F9ABEB000040002060494661
:100E80005046FFF79DF9834641460098FFF798F9D1
:100E900058444000E06320347F1E002F3FF7E0AE4F
:100EA000BDE8F88FD855030810B5344801683448B8
:100EB000006800F0DBFE00285ED0324800680028A1
:100EC0004AD000BF2E48006800F0C6FE0028F9D1C5
:100ED0002A4801682A48006800F0ECFD2A480068AA
:100EE0002A49886027480068B0F5803F02D225482B
:100EF000006801E04FF6FF7024490861204800684F
:100F000000F0F4FE01211E48006800F0EDFD1E48CF
:100F100000681C490968B1F5803F02D21949096887
:100F200001E04FF6FF7100EB4100174908601548DA
:100F30000068B0F5803F02D21248006801E04FF629
:100F4000FF7010490968081A0E49086001210C4811
:100F5000006800F0C9FD0FE000210948006800F0BA
:100F6000C3FD064801680648006800F0A3FD0021A3
:100F70000548006801F038FB10BD0000B800001003
:100F8000A800001090000010940000100401001050
:100F900008B536480068012847D101213448006867
:100FA00004F0E0FD00213348006800F09DFD314869
:100FB000006800F0A5FD30480068304908603048FE
:100FC00000684860002088604020C8604FF6FE70CE
:100FD0000861002048614FF4806088614000C8616A
:100FE00080000862002048624FF4003088620020D0
:100FF000C8620863486388631E48006800F076FE94
:10100000012210211B48006800F052FE1D480078A4
:101010008DF8000000208DF801008DF802000120FD
:101020008DF80300684603F081FD10480068012830
:1010300005D101220221144805F0D8F914E000F08E
:10104000DFFC01227121104805F00FFA33208DF8E2
:10105000000000208DF801008DF8020001208DF8BD
:101060000300684603F062FD08BD0000A000001008
:10107000A4000010A8000010B0000010040100102F
:10108000AC000010B4000010003C004070B50446F5
:101090000D4654B9002202210E4805F0A7F900219F
:1010A0000D48006800F020FD13E0012202210948EC
:1010B00005F09CF901210848006800F015FD05487D
:1010C0001C30008800F4806018B90121014802F04A
:1010D00093F870BD003C0040A800001070B50546B4
:1010E0000C461548006801280ED114488560600838
:1010F000124908611248006800F0F8FD012110480B
:10110000006800F0F1FC0CE00C48856004610146C9
:101110000B48006800F0EAFD01210948006800F072
:10112000E3FC0848008800F4806020B901210548EC
:101130001C3802F061F870BDA0000010040100101E
:10114000A80000101C3C004010B500210C480068AD
:1011500000F0CAFC0B4800680B4A126810430B4AA7
:10116000126810430A4A126840EA02010448006803
:1011700000F0A0FC0021074802F03EF810BD00007E
:10118000A8000010B8000010BC000010C000001043
:10119000C4000010003C004070B505460C460848ED
:1011A0000560204600F00EF800BF054800680028E2
:1011B000FBD100214FF0804005F01FFB70BD000007
:1011C000100000203EB5044600214FF0804005F09D
:1011D00014FB00220121880705F02FFB022C02D10D
:1011E0000B20019004E0012C02D142F6DF60019057
:1011F0000520ADF800000020ADF80800ADF80200B1
:1012000069464FF0804005F023FB0121880705F077
:10121000F1FA0121880705F0E1FA01221146900751
:1012200005F00BFB0121880705F0E7FA3EBD00BF82
:10123000FEE7014609B920207047002201E0521C58
:10124000490001F000400028F9D01046F4E70146BB
:1012500009B920207047002201E0521C490001F02A
:1012600000400028F9D01046F4E7000010B50B4804
:10127000007810B101280DD108E00948007820B9A4
:101280000BF0DEFA07A003F03BFA04E0002004496B
:10129000087000E000BF00BF10BD00001C0000107F
:1012A00005000010303A2F4D55534943000000000F
:1012B0001CB50121042004F055FC202000900120E1
:1012C0008DF8040000208DF8060003208DF805003D
:1012D00000208DF807006946034801F0E3FA202159
:1012E000014801F04CFB1CBD0008024010B502464D
:1012F0001346002002E000241C54401C8842FADB04
:1013000010BD000010B588B004460121C80304F0E8
:1013100049FC154805F074F806940020ADF8120059
:10132000ADF81400ADF81C004FF40070ADF81000DB
:10133000ADF8160004A90C4801F06AFF0B480068DC
:1013400002280ED10121000704F02CFC002000909F
:1013500001900390694600F07BFB0121002000F022
:101360003BFB08B010BD0000003C0040A000001096
:101370001FB50121480504F015FC0F4801F054FE8B
:101380000020ADF804004BF6FF70ADF806003320E6
:10139000ADF808004FF48060ADF80A000001ADF828
:1013A0000C00064800900121034801F031FE694617
:1013B000014801F09FFE1FBD00540040A0860100BF
:1013C0001CB50121082004F0CDFB10200090012065
:1013D0008DF8040002208DF8050000208DF806002D
:1013E0008DF8070069463A4801F05CFA01210720B0
:1013F00004F0B8FB4FF41070009002208DF8040048
:101400008DF8050001208DF8060000208DF80700FA
:101410006946304801F046FA042206212D4801F0C1
:1014200089FA042209212B4801F084FA4FF4A050D4
:10143000009002208DF804008DF8050000208DF842
:1014400006008DF807006946234801F02BFA0622B2
:101450000421224801F06EFA06220A211E4801F0FA
:1014600069FA1F48006802280BD0102000906946D6
:101470001A4801F017FA06220C21174801F05AFA0F
:101480000FE00121084604F06DFB102000900320BE
:101490008DF8040000208DF8070069460F4801F020
:1014A00001FA8020009002208DF804008DF80500DC
:1014B00000208DF806008DF807006946064801F007
:1014C000F1F906220721044801F034FA1CBD00009E
:1014D000000C0240000402400008024000000240EC
:1014E000A00000102DE9F04107460D4616460024E5
:1014F000FFF766FF00F084F9FFF73AFF01210220B1
:1015000000F0D6F90444AF21042000F0D1F90444DE
:10151000AF202C4908708121052000F0C9F904444E
:101520000421062000F0C4F90444284600F09CF988
:1015300025480068022818D10121082000F0B8F9D8
:1015400004440121092000F0B3F90444C0210E2015
:1015500000F0AEF904440021142000F0A9F904447D
:101560000021152000F0A4F904449E21022000F07F
:101570009FF9044400210A2000F09AF9044412481B
:101580000068022804D004210E2000F091F90444E0
:101590000021272000F08CF904440F211F2000F0C7
:1015A00087F904440A211A2000F082F904440A2130
:1015B0001B2000F07DF904443046FFF7A3FE2046CF
:1015C000BDE8F0819C000010A000001070B5054639
:1015D0000024012D05D1FF21042000F069F9044405
:1015E00005E004480178042000F062F90444204634
:1015F00070BD00009C00001070B5054600244DB978
:101600000120FFF7E3FF04440121022000F050F91C
:1016100004440EE00020FFF7D9FF04440648017897
:10162000042000F045F904449E21022000F040F916
:101630000444204670BD00009C00001070B50446B4
:1016400000254FF496106849086008E0664908686C
:10165000411E654A116010B900F004F970BD4FF4E5
:101660000031624801F028FD0028EFD101215F48D8
:1016700001F00AFD4FF480505B49086008E05A49C8
:101680000868411E584A116010B900F0EBF8E5E710
:101690005749564801F0A1FC0028F0D000229421BF
:1016A000524801F09FFD4FF480504F49086008E018
:1016B0004D490868411E4C4A116010B900F0D2F83B
:1016C000CCE74C49494801F088FC0028F0D021467D
:1016D000464801F08FFD4FF480504349086008E010
:1016E00041490868411E404A116010B900F0BAF83B
:1016F000B4E741493D4801F0DFFC0028F0D001216A
:101700003A4801F0C1FC4FF480503749086008E0C6
:1017100035490868411E344A116010B900F0A2F83A
:101720009CE73349314801F058FC0028F0D00122F1
:1017300094212E4801F056FD4FF480502A4908604C
:1017400008E029490868411E274A116010B900F0D5
:1017500089F883E72849891E244801F0ADFC002858
:10176000EFD00021214801F02CFC204818300088DF
:1017700001211E4801F094FC4FF480501A49086082
:1017800008E019490868411E174A116010B900F0B5
:1017900069F863E718493C31144801F08DFC0028D2
:1017A000EFD0124801F01AFD05464FF480500E4963
:1017B000086008E00C490868411E0B4A116010B926
:1017C00000F050F84AE70948008800F4007000284B
:1017D000F0D10121054801F0F4FB0849034801F06C
:1017E00011FC28463AE70000980000100054004021
:1017F0000100030082000700040000100004001034
:1018000010B500221021064801F0BBF844F6FF7025
:1018100000F01EFD01221021014801F0B2F810BDB8
:10182000000C024070B5054600240120FFF7CEFEF3
:10183000022D05D19F21022000F03AF804440DE06A
:101840009F21022000F034F8044440F6FF7000F0BD
:10185000FFFC00221021024801F093F8204670BDE1
:10186000000C02400020704770B504460025E62CAD
:101870000EDDA4F1E700C1B2202000F019F8054404
:10188000A4F1E700C1B2212000F012F805440DE0F8
:1018900004F11900C1B2202000F00AF8054404F157
:1018A0001900C1B2212000F003F80544284670BD9C
:1018B00070B504460D4600264FF496104149086065
:1018C00008E040490868411E3E4A116010B9FFF720
:1018D000C9FF70BD4FF400313B4801F0EDFB00281B
:1018E000EFD10121384801F0CFFB4FF4805035494A
:1018F000086008E033490868411E324A116010B997
:10190000FFF7B0FFE5E731492F4801F066FB0028FB
:10191000F0D0002294212C4801F064FC4FF4805058
:101920002849086008E027490868411E254A1160D7
:1019300010B9FFF797FFCCE72549234801F04DFB8D
:101940000028F0D02146204801F054FC4FF480508C
:101950001C49086008E01B490868411E194A1160CB
:1019600010B9FFF77FFFB4E71949891E164801F047
:1019700034FB0028EFD02946134801F03BFC4FF41C
:1019800096101049086007E00E490868411E0D4A8C
:10199000116008B9FFF766FF0E490B4801F08CFB98
:1019A0000028F1D00121084801F07AFB2046FFF71A
:1019B00045FEA84201D0012000E000200646304646
:1019C00087E7000098000010005400400100030069
:1019D000820007000400001039B1084A1268012390
:1019E00083401A43054B1A6006E0044A126801233B
:1019F00083409A43014B1A60704700000074004016
:101A000000B587B00121104804F0ACF80121480767
:101A100004F0C8F81020019003208DF80800002081
:101A20008DF80B0001A9094800F03CFF002003904D
:101A30000490069003A900F00BF801210020FFF7A5
:101A4000CBFF07B000BD00000100200000000240F5
:101A500030B5002200230A4C226840F6FE74844010
:101A6000A243D1E900452C438D682C43CD6844EA5C
:101A7000050303FA00F42243014C226030BD00004C
:101A80000074004008B500220092054A009200F15F
:101A90000802009B1A440092009A116008BD0000E1
:101AA0000074004010B5FFF7FFF910BD10B5FFF747
:101AB000FBF910BD0246094B9A4201D2084801E0E9
:101AC0000648103801F000531BB1064B0B40C360B1
:101AD00002E0044B0B40836070470000106402403A
:101AE000006002407D0F7D0F21B1026842F00102CB
:101AF000026003E0026822F0010202607047000009
:101B0000016821F0010101600021016041608160F4
:101B1000C1600161212141614A49884204D13D21CE
:101B2000484A103A91608CE046491831884205D104
:101B30004FF47461434A103A916082E04149303178
:101B4000884205D14FF474113E4A103A916078E012
:101B50003C494831884205D14FF07461394A103A06
:101B600091606EE037496031884204D13649354A88
:101B7000103AD16065E033497831884204D1334965
:101B8000304A103AD1605CE02E499031884204D14D
:101B90002F492C4A103AD16053E02A49A831884293
:101BA00005D14FF03D51274A103AD16049E029490B
:101BB000884204D13D21274A083A116041E0254975
:101BC0001831884205D14FF47461224A083A1160F5
:101BD00037E020493031884205D14FF474111D4A55
:101BE000083A11602DE01B494831884205D14FF079
:101BF0007461184A083A116023E01649603188423E
:101C000004D11149134A121F11601AE011497831A9
:101C1000884204D10D490F4A121F116011E00D498D
:101C20009031884204D10A490A4A121F116008E023
:101C30000849A831884204D14FF03D51054A121F8E
:101C400011607047106002403D000020400F0020EE
:101C500000003D2010640240014600200A6802F0A6
:101C600001020AB1012000E00020704730B50346B0
:101C70000A46002000240B4DAB4201D20A4901E084
:101C80000849103902F000550DB14C6800E00C68AD
:101C9000064D2C4004EA02050DB1012000E00020B1
:101CA00030BD000010640240006002407D0F7D0FD7
:101CB00010B501F080034BB122B1436943F08003BA
:101CC000436103E0436923F08003436180290BD023
:101CD0002AB1036801F01E042343036004E0036893
:101CE00001F01E04A343036010BD000010B50022E4
:101CF0000268134B1A40CC680B6823434C6923439A
:101D00008C692343CC6923430C6A23434C6A2343E5
:101D10008C6A23434C6B23438C6B23431A4302602E
:101D2000426922F00702D1E90B3423431A4342618E
:101D30000B6943604B6883608B68C36010BD000013
:101D40003F801CF0704700002DE9FF4F87B005462B
:101D50000E46149C002E03DC00200BB0BDE8F08F73
:101D6000002B02DA4FF0FF30F7E70593DFF858B3A6
:101D700009985BF82000DFF854B30BEB40000190AA
:101D8000DFF84CB309985BF830C009980BEBC00042
:101D90000079029000221598404200F0070129B115
:101DA00014F8010BC1F1200B00FA0BF25B1A029838
:101DB00098B9002006900BE04FF0000B069845F80C
:101DC00020B00698401C45F820B00698801C06906C
:101DD0000698B042F0DB0020BFE70298012879D1D5
:101DE0000198007800F00F0004900198801C019089
:101DF0004FF0000A65E0102B10DB14F8010BC1F165
:101E0000180B00FA0BF0024314F8010BC1F1100B90
:101E100000FA0BF002431031103B22E0C8180028F2
:101E200002DC4FF0FF3098E7002B06DD14F8010BC1
:101E3000C1F1180B00FA0BF00243082B06DD14F871
:101E4000010BC1F1100B00FA0BF0024319440023FF
:101E5000481E4FF0004B4BFA00F002404FF00B0AC7
:101E600051442AE00498C0F1200022FA00F0DDF885
:101E700004B03BF810804FEA183EA1EB0E0102FAC5
:101E80000EF2C8F30319B9F1000F05D002F00040BB
:101E900040EA09095200491EC8F3032727B102F09E
:101EA000004007435200491E514502DA4FF0FF300F
:101EB00053E745F8049B80C5B61E002E01DD0B29B3
:101EC000D0DA002E97DCA1EB0A0003440598C01A73
:101ED00043E7FFE70298032802D00298022876D150
:101EE000019800904FF0000AE2E0102B10DB14F88C
:101EF000010BC1F1180B00FA0BF0024314F8010BAF
:101F0000C1F1100B00FA0BF002431031103B22E03C
:101F1000C818002802DC4FF0FF301EE7002B06DD5A
:101F200014F8010BC1F1180B00FA0BF00243082B57
:101F300006DD14F8010BC1F1100B00FA0BF002439F
:101F400019440023481E4FF0004B4BFA00F00240AA
:101F50004FF00B0A5144A6E00098007800F00F0003
:101F600004900498C0F1200B22FA0BF0401CDDF81D
:101F700000B03BF810804FEA183EBEF1000F08D1C8
:101F80000498091A04988240009800EB48000090D9
:101F900089E0A1EB0E0102FA0EF2C8F30319C8F3AF
:101FA0000327B9F10F0F33D10298032830D10FB1B5
:101FB000012000E000200CF1010B5844039001EBDC
:101FC000030B0398834503DA4FF0FF30C5E678E052
:101FD00008E014F8010BC1F1180B00FA0BF00243F2
:101FE0000831083B03988142F3DB002B07DA1944E0
:101FF0000023481E4FF0004B4BFA00F00240CCF19A
:10200000200022FA00F08144A1EB0C0102FA0CF24C
:10201000B9F1000F05D002F0004040EA0909520072
:10202000491E0F2F2DD1029803282AD10CF101004F
:10203000039001EB030B0398834502DA4FF0FF3066
:102040008BE608E014F8010BC1F1180B00FA0BF055
:1020500002430831083B03988142F3DB002B07DA87
:1020600019440023481E4FF0004B4BFA00F0024089
:10207000CCF1200022FA00F00744A1EB0C0102FA97
:102080000CF227B102F0004007435200491E5145AF
:1020900002DA4FF0FF3060E645F8049B80C5B61EBB
:1020A0000198009000BF002E02DD0B29BFF654AF4F
:1020B000002E3FF71AAFA1EB0A0003440598C01A9F
:1020C0004BE64FF0FF3048E6884A030864290308CE
:1020D000084B03082DE9FF4F83B00546109C002BE9
:1020E00003DC002007B0BDE8F08FDFF858E1059869
:1020F0005EF82000DFF850E170440090DFF84CE11A
:1021000005985EF82000029000221198404200F0ED
:10211000070129B114F8010BC1F1200E00FA0EF2EB
:102120005B1A0027019785E0102B10DB14F8010BD8
:10213000C1F1180E00FA0EF0024314F8010BC1F1C0
:10214000100E00FA0EF002431031103B22E0C818C6
:10215000002801DC3846C5E7002B06DD14F8010B2A
:10216000C1F1180E00FA0EF00243082B06DD14F838
:10217000010BC1F1100E00FA0EF0024319440023C6
:10218000481E4FF0004E4EFA00F002400A20019027
:102190000198014448E00298C0F1200022FA00F0C2
:1021A000DDF800E01EF800604FEA161BA1EB0B0102
:1021B00002FA0BF2C6F3C00CBCF1000F05D002F01E
:1021C000004040EA0C0C5200491EC6F38008B8F1EA
:1021D000000F05D002F0004040EA08085200491EF6
:1021E000C6F34009B9F1000F05D002F0004040EA03
:1021F00009095200491E06F0010ABAF1000F05D084
:1022000002F0004040EA0A0A5200491E0198814249
:1022100001DA384666E745F804CB45F8048B45F803
:10222000049B45F804AB3F1D0498C01EB84201DD75
:102230000A29B0DA0498C01EB8423FF775AF384695
:1022400050E70000584C0308084C0308604C030892
:1022500001B502E00098401E009000980028F9D1D6
:1022600008BD00002DE9FF4F87B083469846002047
:10227000009008F00300604901EB801A08F00300A9
:102280005E4951F8200002901F20B0EBA80F02DD3C
:102290004FEAA80000E01F200746F81C1F2800DABC
:1022A00000E01F200546002D01DD284600E000204B
:1022B000054600200390DAF8040028410490DAF87B
:1022C000080028410590DAF80C002841069000BF6C
:1022D0005BF8040B0190019820F00044042C03DA11
:1022E00003A850F824606FE0102C0BDA5AF8246031
:1022F000002F03DA794206FA01F001E046FA07F00E
:10230000064661E0402C0BDAA4F110003C4951F87C
:10231000206030460299FDF753FF0646FD1E45E05A
:1023200064040025B4F1006F01DA24012D1DB4F11D
:10233000005F01DAA400AD1CB4F1804F01DA640043
:102340006D1C3048844201DA2F4800E02F48814656
:10235000D9F8006021463046FDF732FFD9F8041065
:10236000461821463046FDF72BFFD9F808104618CD
:1023700021463046FDF724FFD9F80C1046182146B7
:102380003046FDF71DFFD9F810104618204850F8C8
:1023900025103046FDF714FFC60030460299FDF7C0
:1023A0000FFF06461B4850F825003D1A002D0ADA9B
:1023B0006D426FF000402841B04202DA6FF00046F3
:1023C00002E0AE4000E02E410098304300900198BA
:1023D000002801DA704200E0304608990860089849
:1023E000001D08900998401E099000287FF470AFE6
:1023F00000980BB0BDE8F08F3C2703082C2703089A
:102400003C2803089A79825AFC28030810290308FB
:1024100044290308242903083EB504461F200090E0
:102420001748028814230021084601F0A7FB1F204B
:1024300000901348438802884088143881B20020F5
:1024400001F09CFB4FF6FF700E490880012010211F
:102450001F234FF6FF72CDE90041029002210020B8
:1024600000F036FC0020009005484088143883B204
:10247000034802881421002001F080FB3EBD0000CB
:102480007459002078000010002070472DE9F041B9
:1024900005460C461646642C01DD642005E0C4EBBD
:1024A0000420642190FBF1F0C0B207463246394661
:1024B0002846FFF717F810B10120BDE8F081FEF7BC
:1024C00067FD0020F9E710B504462046FFF794F8B1
:1024D00008B1012010BD00212046FEF7D7FD0020E5
:1024E000F8E70000264908600968012923D1490559
:1024F000244A11602449254A11602549254A116062
:102500000021254A11602F21244A11604FF02051EB
:10251000234A11604FF01051224A11604FF00151CF
:10252000214A11604FF00851204A11604FF00451C8
:102530001F4A116023E0022821D10105114A1160D0
:102540001149A839114A11601A49124A1160002133
:10255000114A11600B21114A11601749104A11608C
:10256000154910390F4A116014490F4A1160124978
:1025700018390E4A11601149C91C0D4A1160704783
:10258000A0000010A4000010B8600240A8000010D5
:102590000C3C0040AC000010B0000010B400001073
:1025A000B8000010BC000010C0000010C4000010F3
:1025B000C80000100C7400402000001001008010C2
:1025C00010B504462046FFF72DF908B1012010BDD3
:1025D000FEF7BAFD02480068024908600020F6E7ED
:1025E0008C000010900000100122014B1A6070470F
:1025F0004C00002070B50446642C01DD642005E029
:10260000C4EB0420642190FBF1F0C0B20546FFF753
:102610002BF970BD10B5012000F02EF8D0B10F4895
:102620000078012805D100200D4908700B49087079
:1026300010E00A48007840B90120084908700949AB
:1026400008600220FFF7BCFF04E000200449087086
:1026500002490870012000F009F810BD1C000010AC
:10266000050000104C000020704700000149086080
:1026700070470000143C0140014600200022074B37
:102680001B6803EA0102054B14331B680B4013B1AE
:102690000AB1012000E0002070470000003C01402A
:1026A0002DE9F04F89B004460F4692461D46002D95
:1026B0005BD10AF00100002853D08034D4F800B078
:1026C00004F580742068089004F5807420680790F1
:1026D00004F580742068069004F5807420680590E5
:1026E00004F580742068049004F5807420680390D9
:1026F00004F580742068029004F5807420680190CD
:1027000004F58074A4F51064CBF10000206004F59A
:10271000807408984042206004F580740798404215
:10272000206004F5807406984042206004F58074AF
:1027300005984042206004F580740498404220606F
:1027400004F5807403984042206004F58074029878
:102750004042206004F5807401984042206004F5F6
:102760008074002009B0BDE8F08F4FF000090AF036
:10277000010000284AD0C84644E02668F017C5F199
:102780001F0146FA01F1814206D0C5F11F02012165
:102790009140491E81EA000606FA05F02060206893
:1027A000FDF711FD40EA0909803420684642F01720
:1027B000C5F11F0146FA01F1814206D0C5F11F02A1
:1027C00001219140491E81EA000606FA05F02060C9
:1027D0002068FDF7F8FC40EA090980343E68F017EC
:1027E000C5F11F0146FA01F1814206D0C5F11F0271
:1027F00001219140491E81EA000606FA05F001C751
:1028000008F10208B8F1120FB7DB49E04FF00008F9
:1028100043E02668F017C5F11F0146FA01F1814235
:1028200006D0C5F11F0201219140491E81EA000630
:1028300006FA05F020602068FDF7C5FC40EA0909AA
:1028400080342668F017C5F11F0146FA01F1814274
:1028500006D0C5F11F0201219140491E81EA000600
:1028600006FA05F020602068FDF7ADFC40EA090992
:1028700080343E68F017C5F11F0146FA01F181422C
:1028800006D0C5F11F0201219140491E81EA0006D0
:1028900006FA05F001C708F10208B8F1120FB8DB1B
:1028A00048465FE7F0B50A4600210023002400BF38
:1028B0003DE0012505FA01F3156805EA03049C4291
:1028C00034D105684F000326BE40B5430560157935
:1028D0004E00B5400668354305601579012D02D0DC
:1028E0001579022D16D185684F000326BE40B543E9
:1028F000856055794E00B5408668354385604568EA
:1029000001268E40B5434560456896798E40B6B243
:1029100035434560C5684F000326BE40B543C560DA
:10292000D5794E00B540C6683543C560491C1029AD
:10293000BFD3F0BDF0B5002300244D07ED0E02FA21
:1029400005F3CE1000F1200555F826504E07F70E7E
:102950000F26BE40B543CF1000F1200646F82750A1
:10296000CE1000F1200555F8265045EA0304CE109C
:1029700000F1200545F82640F0BD418370470183F2
:1029800070470AB1018300E0418370472DE9FC4F95
:102990000546884691469A46DDF82CB0009540F6EB
:1029A000BD60019000245FE004EB0410374911F88A
:1029B00010009BF80010884253D104EB04103349F7
:1029C00001EB400040789BF80110884249D108F1A2
:1029D0000F0083B205F10F0082B24146284601F094
:1029E000BDFA00263BE0002734E00C9890B904EBD8
:1029F0000410264901EB4000801C805D8021394194
:102A0000084018B1484601F07DF821E0504601F039
:102A100079F81DE01E48A0F8009004EB04101B4953
:102A200001EB4000801C805D80213941084018B1D5
:102A30004146284601F03AF8681C85B20098281AE9
:102A4000102805D1009D08F101001FFA80F803E06D
:102A5000781CC7B2082FC8DB00BF701CC6B2202E7E
:102A6000C1DB00BF601C84B2019884429CDB094832
:102A70004088401E83B207480088401E82B2002171
:102A8000084601F06BFABDE8FC8F00006A2A0108D5
:102A900078000010745900202DE9FC4F0546884647
:102AA00091469A46DDF82CB000950D200190002447
:102AB00067E004EB840000EB44103A4911F8100081
:102AC0009BF80010884259D104EB840000EB4410BD
:102AD000344901EB400040789BF8011088424DD109
:102AE00008F1170083B205F1170082B2414628466B
:102AF00001F034FA00263FE0002738E00C98A0B936
:102B000004EB840000EB4410264901EB4000801CDC
:102B1000805D80213941084018B1484600F0F2FF3D
:102B200023E0504600F0EEFF1FE01F48A0F80090A1
:102B300004EB840000EB44101A4901EB4000801CB8
:102B4000805D80213941084018B14146284600F097
:102B5000ADFF681C85B20098281A182805D1009D81
:102B600008F101001FFA80F803E0781CC7B2082FB3
:102B7000C4DB00BF701CC6B2482EBDDB00BF601CAA
:102B800084B20198844294DB08484088401E83B296
:102B900006480088401E82B20021084601F0DEF996
:102BA000BDE8FC8F841F03087800001074590020D2
:102BB0002DE9FC4F0546884691469A46DDF82CB033
:102BC00000950620019000245FE004EB8410374953
:102BD00011F810009BF80010884253D104EB8410C8
:102BE000324901EB400040789BF80110884249D1FE
:102BF00008F11F0083B205F11F0082B2414628464A
:102C000001F0ACF900263BE0002734E00C9890B9C5
:102C100004EB8410254901EB4000801C805D80217D
:102C20003941084018B1484600F06CFF21E0504699
:102C300000F068FF1DE01E48A0F8009004EB84102F
:102C40001A4901EB4000801C805D80213941084019
:102C500018B14146284600F029FF681C85B200984B
:102C6000281A202805D1009D08F101001FFA80F8DC
:102C700003E0781CC7B2082FC8DB00BF701CC6B2C7
:102C8000802EC1DB00BF601C84B2019884429CDBB3
:102C900008484088401E83B206480088401E82B221
:102CA0000021084601F05AF9BDE8FC8F46230308CD
:102CB000780000107459002070B505460E46144681
:102CC0003146284601F018F9204600F01BFF70BD80
:102CD0002DE9FF4F83B004460F469046DDE9119A77
:102CE000109D2846FDF74AFF86B20A490988A1EBE4
:102CF000C60000EBD071C1F34F0B04EB0B0188B29F
:102D00008DE8200642463946069B03F075FC07B065
:102D1000BDE8F08F745900202DE9F04306460F46B8
:102D2000154607F1170083B206F1170082B2394643
:102D3000304601F013F900240AE015F8149005EB71
:102D4000440090F8018049EA082000F0DBFE641C92
:102D5000B4F5107FF1DB07484088401E83B2054878
:102D60000088401E82B20021084601F0F7F8BDE855
:102D7000F08300007459002001464869806880B2E1
:102D8000704708B50146D1F8CC0000680090009863
:102D9000C0F3414008BD024602F29B20405C7047F0
:102DA000024602F5147050F82100704770B50446D1
:102DB0000E4600250021C4F8101200BF0BE00021D0
:102DC00004F5057040F825103C3040F825103C30E3
:102DD0004155681CC5B20F2DF1DB0821A4F8B212D1
:102DE0003146204606F012FB204605F01DFF204626
:102DF00005F09AFD0121204606F070FB204605F003
:102E00007AFE204605F067FF002070BD0146D1F82C
:102E10001002704710B50446204606F0D6FA00208E
:102E200010BD70B504460D46002104F29B204155AB
:102E3000113000EB451041612946204606F074F937
:102E400070BD00BFFEE72DE9FF4F99B00F469046D9
:102E5000269D4FF00009002424E01C98406906904C
:102E60001C98806920B16869A04201DD00200690AD
:102E7000E86805902869A04201DD00200590A86956
:102E8000059908EB8402CDE9001402903946069BAF
:102E9000199800F067FB40EA090919984830199021
:102EA0002437641C2868A042D7DC17E0E868059046
:102EB0002869A04201DD00200590A86908EB840282
:102EC000CDE900403946059B199800F055FA40EAD3
:102ED00009091998483019902437641C6868A04281
:102EE000E4DC049449E0E86805902869A04201DD2B
:102EF0000020059007A93846059A07F021FC4FF0FD
:102F0000000BE007039000262FE0700007A951F89E
:102F100020004FEA800A4BEA0A0B08EB062040F833
:102F200024A05046FDF74FF940EA09097000401C03
:102F300007A951F820004FEA800A03988AEAE07056
:102F400004F0010100EB010A4BEA0A0B7000401C7F
:102F500008EBC01040F824A05046FDF734F940EAD1
:102F60000909002047F82600761C092ECDDB2437FE
:102F7000BBF1000F00D00494641CA868A042B2DC2E
:102F80000AE0002605E0002008EBC61141F8240005
:102F9000761C122EF7DB641C202CF2DB484608B9A5
:102FA000202208E0002101E0491C400000F000421E
:102FB000002AF9D00A46521EEA6104981DB0BDE805
:102FC000F08F21B1028842F48062028004E002881E
:102FD0004FF6FF331A400280704770B50246002456
:102FE000002500230020958A138B1B0445EA030665
:102FF00026F07F4404EA01068E4201D1012000E060
:10300000002070BD002221F07F42D34383827047AD
:1030100021B1028842F00102028004E002884FF6EA
:10302000FE731A400280704710B50446134884426C
:1030300009D10121480502F0C5FD00214FF400101F
:1030400002F0C0FD18E00E48844209D10121880534
:1030500002F0B8FD00214FF4800002F0B3FD0BE058
:103060000848844208D10121C80502F0ABFD0021C7
:103070004FF4000002F0A6FD10BD00000054004017
:1030800000580040005C004021B1028842F4807288
:10309000028004E002884FF6FF631A400280704706
:1030A00021B1028842F40072028004E002884FF6E7
:1030B000FF531A40028070470CB5024600200023DF
:1030C0000193009300920B0F019321F07F41019B2C
:1030D0001BB1009B1433009303E0090C009B1833D1
:1030E0000093009B1B680B400BB1012000E0002007
:1030F0000CBD00002DE9FF4704460D460026B146F1
:103100000427DFF8CC80A6884FF6C07006406846DA
:1031100002F088FDDDF808802E48B8FBF0F01FFAB9
:1031200080F946EA0906A68020884FF6FE7108401D
:10313000208000262849286888420CD8286840004A
:10314000B8FBF0F087B2042F00DA04273E4309F100
:103150000100208427E0E8884BF6FF71884206D101
:10316000286800EB4000B8FBF0F087B209E028685F
:1031700000EBC00101EB0010B8FBF0F087B247F4A0
:103180008047C7F30B0008B947F0010747F4004038
:1031900006434FF4967009FB00F04FF47A7190FBF0
:1031A000F1F0401C2084A683208840F0010020809C
:1031B00026884FF6F5300640A888698908430643FB
:1031C0002680A889298908432081BDE8FF8700005F
:1031D00000127A0040420F00A08601000146088AD2
:1031E000C0B2704712B141F0010101E001F0FE01EF
:1031F000018270470182704721B1828B42F4806264
:10320000828304E0828B4FF6FF331A40828370473B
:103210002DE9F04F0025022300240127002200267B
:10322000944690469146B0F81CA04FF2400B0AEA33
:103230000B0AA0F81CA04FF0020AA0F820A0858B72
:10324000D1F808A0BAF1020F01D100BF6CE0B1F8CB
:1032500004A0BAF1000F01D1012700E00227DFF836
:1032600010A1DAF800A00AF4000ABAF1000F09D0A0
:10327000DFF8FCA0DAF800A02AF4000ADFF8F0B0CA
:10328000CBF800A0DFF8E8A00AF17C0ADAF800A089
:10329000CAF38818DFF8D8A00AF17C0ADAF800A08F
:1032A000CAF30279DFF8C8A0AAF1040ADAF800A08C
:1032B0000AF03F0CDFF8BCA0BAFBFCFA0AFB08FAE4
:1032C000BAFBF9F6B1F806A0BAF5007F0ED14FEAC5
:1032D000162A0AEB8A0A4FEA4A0AD1F808B0BAFB62
:1032E000FBFA0AF1050A1FFA8AF20FE04FEA471AC1
:1032F000B6FBFAFA0AEB8A0A4FEA4A0AD1F808B092
:10330000BAFBFBFA0AF1050A1FFA8AF24FF00A0A21
:10331000B2FBFAF202F00104A2EB040ACAF34F0373
:103320004FF6FF7A0AEA0424022B01DBFF2B01DDB2
:1033300002230024B1F806A04AEA040A4AEA030A72
:10334000A0F820A0B1F804A0B1F80CB04AEA0B0A2A
:10335000B1F802B04AEA0B0AB1F800B04AEA0B0A27
:103360004AF4006A4AEA05058583BDE8F08F00004B
:103370000838024000127A002DE9FF4FA5B08046C0
:103380000D46174600202490339807281BDA3398FF
:10339000C0F107002490002412E058F8240024997A
:1033A000084148F82400601C58F82000249908417E
:1033B000611C48F8210028682499084101C5A41C13
:1033C000122CEADB243D12A9404609F01DFD18A984
:1033D00008F1040009F018FD1EA908F1080009F021
:1033E00013FD69462846289A07F0AAF9DFF870A16C
:1033F0000026002490E05DF824004FEA800948464A
:10340000FCF7E1FE0643600147F82090E01C5DF800
:1034100020004FEA80094846FCF7D5FE0643E01C31
:10342000400147F82090E21C12AB53F822105AF8E2
:103430002400FCF7C5FEA11D5DF8211000EB8109F9
:103440004846FCF7C0FE0643A01D400147F8209007
:10345000C4F1050212AB53F82210E21C5AF8220004
:10346000FCF7AEFE04F109015DF8211000EB8109C3
:103470004846FCF7A8FE064304F10900400147F85E
:103480002090C4F1020212AB53F82210A21D5AF888
:103490002200FCF795FE834604F1090212AB53F8B3
:1034A00022105AF82400FCF78BFE0BEB000104F10C
:1034B0000C005DF8200001EB80094846FCF783FE14
:1034C000064304F10C00400147F8209012AA52F87C
:1034D000241004F109025AF82200FCF771FE834619
:1034E000C4F10B0212AB53F82210E21C5AF822006E
:1034F000FCF766FE0BEB000104F10F005DF8200005
:1035000001EB80094846FCF75EFE064304F10F001C
:10351000400147F82090641C032CFFF66CAF062492
:1035200005E012A850F82400801001C5641C092C85
:10353000F7DB0C2405E012A850F82400801001C528
:10354000641C122CF7DB243D29463846249B329A12
:10355000FFF7A6F80643304629B0BDE8F08F00001B
:10356000685303082DE9FF4FAFB005460E4693465A
:1035700000200746099044353E98072825DA3E98F2
:10358000C0F107002E9008241CE055F804092E997C
:103590000841C71B0998381A099055F804092E9953
:1035A0000841C71B1CAA04F10901099842F821002F
:1035B0001CA840F8247056F824002E99084146F8BB
:1035C0002400641E002CE0DA18E000202E9008246D
:1035D00012E055F80419CF1B0998381A099055F8CC
:1035E0000419CF1B1CAA04F10901099842F8210013
:1035F0001CA840F82470641E002CEADA25984010BC
:1036000025901C9840101C901CA809F00FFB25A8C1
:1036100009F00CFB0DF1900A614800904FF0000991
:103620003C98002855D13298002852D1DFF8748197
:1036300000244BE00098006803900098001F009061
:10364000DAF8240005905AF80409049005990398C3
:10365000FCF7B6FD05900498801004903068404255
:103660000890DDE90410401A0790DDE904010844E0
:1036700001C6DDE90710401A069058F8041B0698A9
:10368000FCF79EFD0146079800EB8100029058F878
:10369000041B0698FCF794FD0146089800EB810096
:1036A0000190610102984BF82100C4F11101490118
:1036B00001984BF821000298FCF785FD40EA0909C2
:1036C0000198FCF780FD40EA0909641C092CB1DB74
:1036D00059E00AA930463C9A07F032F8329800EBDC
:1036E000C000314901EB001800244AE0009800684E
:1036F00003900098001F0090DAF8240005905AF813
:103700000409049005990398FCF75AFD0590049864
:1037100080100490DDE90401401A0790DDE90401FE
:10372000084401C658F824100798FCF749FD0AA977
:1037300051F82410084480000290C4F1110058F898
:1037400020100798FCF73CFDC4F111010AAA52F8B9
:103750002110084480000190610102984BF821007B
:10376000C4F11101490101984BF821000298FCF7BE
:103770002AFD40EA09090198FCF725FD40EA0909FC
:10378000641C092CB2DB243E314658462E9B3D9AE0
:10379000FEF786FF40EA0909484633B0BDE8F08FDE
:1037A000884C03088C4C0308485203081CB50121BF
:1037B0000B2002F0D7F90120009000208DF80400C2
:1037C0008DF8060002208DF8050000208DF8070016
:1037D00069461348FFF766F8EF20009000208DF847
:1037E00004008DF8060003208DF8050001208DF8F7
:1037F000070069460B48FFF755F8082000900020A5
:103800008DF804008DF8060003208DF805000120D6
:103810008DF8070069460448FFF744F81CBD000016
:1038200000000240000C02400004024010B50446B3
:1038300014B10120474908704648007800285BD041
:103840004548006801281ED044480068D8B1434864
:10385000001D0068B8B142480068A0B13F480C3074
:10386000006880B13D480830006860B13B481C30BA
:10387000006840B139481830006820B1374814302A
:103880000068002838D10A2007F05CFC002031498C
:10389000087031480068012800D110BD2F48006829
:1038A00008B90220F9E72D48001D006808B9032077
:1038B000F3E72B48006808B90620EEE727480C30EC
:1038C000006808B90520E8E724480830006808B90E
:1038D0000420E2E721481C30006808B90920DCE731
:1038E0001E481830006808B90820D6E71B48143075
:1038F000006860BB0720D0E71748006838BB17484E
:103900000068012823D11548001D006801281ED138
:103910001348006801281AD110480C3000680128AB
:1039200015D10E4808300068012810D10B481C3012
:10393000006801280BD1094818300068012806D119
:10394000064814300068012801D10249087000209F
:10395000A3E70000760000100002404200824142CE
:103960000C82404230B50446002518484088401E6D
:1039700083B216480088401E82B20021084600F03B
:10398000EDFA0220124908800120891C088000BF3E
:1039900010E020120F49486188140D49891C0880E5
:1039A000891E08800B4844618014891C0880891E88
:1039B00008806D1C05480088044949884843A8428E
:1039C000E7D801200249088030BD0000745900206A
:1039D00018040240001002402DE9F84104460D464B
:1039E00016461F46DDF81C803B46324629462046D7
:1039F000CDF8008000F0C2F8BDE8F8812DE9FF4F56
:103A000084B081468A460020039002900698A0EB7D
:103A100009050798A0EB0A06CDF80490CDF800A0A0
:103A2000002D01DD012705E00DB9002702E04FF070
:103A3000FF376D42002E02DD4FF0010806E016B997
:103A40004FF0000802E04FF0FF387642B54201DD4A
:103A50002C4600E034464FF0000B21E0009A91B272
:103A6000019A90B200F022F803982844039002983B
:103A7000304402900398A04205DD0398001B039098
:103A80000198384401900298A04205DD0298001B7D
:103A900002900098404400900BF101001FFA80FB57
:103AA000601C8345DADD08B0BDE8F08F30B5044610
:103AB0000D462946204600F01FFA01200E490880D5
:103AC0004003891E0880022008800C4800880012EC
:103AD0000B494861881408490880891E08800748F6
:103AE000008807494861881403490880891E0880B6
:103AF0000120088030BD00001A0402407800001048
:103B00000010024001210C4A11804903921E1180CD
:103B1000022111800112094A51619114064A118053
:103B2000921E1180054948618914921C1180921ED1
:103B300011800121118070471A04024000100240D8
:103B4000F0B504460D4616461F462B46324629461A
:103B50002046FFF753FF3B46224629462046FFF703
:103B60004DFF3B46324639462046FFF747FF3B466E
:103B7000324629463046FFF741FFF0BD2DE9F84FA8
:103B800006460F4614461D46DDF82880A01B401C43
:103B90001FFA80FBE81B401C80B20090681E83B2B5
:103BA000601E82B23946304600F0D8F902201D4925
:103BB00008800120891C08804FF000091EE04FF0AA
:103BC000000A15E04FEA2820174948618814154972
:103BD000891C0880891E08801348C0F8148080144E
:103BE000891C0880891E08800AF101001FFA80FAEA
:103BF000DA45E7DB09F101001FFA80F900988145F9
:103C0000DDDB01200749088008484088401E83B258
:103C100006480088401E82B20021084600F09EF946
:103C2000BDE8F88F180402400010024074590020CB
:103C30001CB50121122001F095FF47F223000090EE
:103C400001208DF8040000208DF806008DF8070093
:103C500003208DF8050069460948FEF723FE47F268
:103C600023010748FEF78BFEFF20009069460548B8
:103C7000FEF718FEFF210348FEF781FE1CBD000081
:103C8000000402400010024010B5FFF7D1FF00F021
:103C90001DF9CF2000F0C0FA002000F0A9FAC120E1
:103CA00000F0A6FA302000F0A3FAED2000F0B4FAFC
:103CB000642000F09DFA032000F09AFA122000F030
:103CC00097FA812000F094FAE82000F0A5FA852008
:103CD00000F08EFA102000F08BFA7A2000F088FABB
:103CE000CB2000F099FA392000F082FA2C2000F065
:103CF0007FFA002000F07CFA342000F079FA0220EC
:103D000000F076FAF72000F087FA202000F070FA31
:103D1000EA2000F081FA002000F06AFA002000F0AA
:103D200067FAC02000F078FA1B2000F061FAC12089
:103D300000F072FA012000F05BFAC52000F06CFA86
:103D4000302000F055FA302000F052FAC72000F081
:103D500063FAB72000F04CFA362000F05DFA4820F4
:103D600000F046FA3A2000F057FA552000F040FAE9
:103D7000B12000F051FA002000F03AFA1A2000F0C9
:103D800037FAB62000F048FA0A2000F031FAA220F3
:103D900000F02EFAF22000F03FFA002000F028FA9E
:103DA000262000F039FA012000F022FAE02000F08D
:103DB00033FA0F2000F01CFA2A2000F019FA28200C
:103DC00000F016FA082000F013FA0E2000F010FAA6
:103DD000082000F00DFA542000F00AFAA92000F0A3
:103DE00007FA432000F004FA0A2000F001FA0F203D
:103DF00000F0FEF9002000F0FBF9002000F0F8F9D7
:103E0000002000F0F5F9002000F0F2F9E12000F0C8
:103E100003FA002000F0ECF9152000F0E9F9172072
:103E200000F0E6F9072000F0E3F9112000F0E0F9D6
:103E3000062000F0DDF92B2000F0DAF9562000F022
:103E4000D7F93C2000F0D4F9052000F0D1F910207A
:103E500000F0CEF90F2000F0CBF93F2000F0C8F9B8
:103E60003F2000F0C5F90F2000F0C2F92B2000F030
:103E7000D3F9002000F0BCF9002000F0B9F90120CE
:103E800000F0B6F93F2000F0B3F92A2000F0C4F9A1
:103E9000002000F0ADF9002000F0AAF9002000F0A9
:103EA000A7F9EF2000F0A4F9112000F0B5F90648B9
:103EB00000F0F2F9292000F0AFF900F039F8002005
:103EC000FFF750FD10BD0000FCBF020000B54FF42D
:103ED000804007490880074800F0DEF94FF4804031
:103EE0000349891E0880034800F0D6F900BD000090
:103EF0001A040240FCBF020010B503460C460B49F1
:103F0000887A00F089F9181200F072F9D8B200F03E
:103F10006FF90649087B00F07FF9201200F068F97C
:103F2000E0B200F065F900F089F910BD7459002085
:103F300000B52C2008490881012088714FF4A07039
:103F40000880F02048802A2048812B2088816C211D
:103F5000362000F07BF900BD7459002070B504468E
:103F60000D4616461149887A00F056F9201200F0E5
:103F70003FF9E0B200F03CF9301200F039F9F0B24C
:103F800000F036F90949087B00F046F9281200F0E4
:103F90002FF9E8B200F02CF9181200F029F9D8B284
:103FA00000F026F900F04AF970BD000074590020B5
:103FB0002DE9FF4F82B081468A469346DDE90F64C2
:103FC000404800880190A6F12000C6B204EBD470EE
:103FD00009EB6000401E82B20AEB0400401E83B26F
:103FE000514648460094FFF7B9FF119850BB002591
:103FF00025E00C2C07D106EB4600334901EB80008D
:1040000010F8058004E0314800EB061010F8058038
:1040100000270DE008F0010018B15846FFF772FDC7
:1040200002E00598FFF76EFD4FEA6808781CC7B2FA
:1040300004EBD471B7EB610FECDB681CC5B2A54291
:10404000D7DB2DE0002529E00C2C07D106EB46003C
:104050001D4901EB800010F8058004E01B4800EBCF
:10406000061010F80580002711E01648A0F800B0EF
:1040700008F0010038B10AEB050291B209EB070222
:1040800090B2FFF713FD4FEA6808781CC7B204EB43
:10409000D471B7EB610FE8DB681CC5B2A542D3DB76
:1040A0000849019808800A484088401E83B20848A1
:1040B0000088401E82B200210846FFF74FFF06B07D
:1040C000BDE8F08F78000010062001087A2401086E
:1040D000745900202DE9FF4F83B0074691461E46D4
:1040E000109C4FF0000A002543E0701B401EC1B237
:1040F0000A2009F0B5FDB9FBF0F00A21B0FBF1F29E
:1041000001FB1208BAF1000F1BD1701EA84218DD86
:10411000B8F1000F13D100202021A346CDE90014EF
:10412000029004EBDB71491001FB057188B2134961
:104130000B8813490A880499FFF73AFF17E04FF0FC
:10414000010A002108F13000C0B2A346CDE90141C7
:10415000009004EBDB71491001FB057188B207493F
:104160000B8807490A880499FFF722FF00BF681CE3
:10417000C5B2B542B9DB07B0BDE8F08F7A000010D8
:10418000780000102DE9FE4106460F4615461C46F4
:10419000DDF824801DE013480088401EB04204DB97
:1041A00010484088401EB84201DABDE8FE81207800
:1041B0008DE821010C4803880C48028839463046B6
:1041C000FFF7F6FE284605EBD07106EB61018EB2D3
:1041D000641C20787E2802DC20782028DBDA00BFEF
:1041E000E3E70000745900207A0000107800001006
:1041F0000221074A11800121921C11800549486162
:1042000089141180921E11800121118070470000D5
:1042100018040240001002400221064A11800121C8
:1042200011800549486189141180921E1180012175
:10423000118070471A0402400010024000B5024984
:10424000087AFFF7E9FF00BD7459002010B5044655
:104250000B462046FFF7E0FF1846FFF7C9FF10BDE9
:104260001CB50121082001F07DFC4FF47040009046
:1042700001208DF8040000208DF8060003208DF841
:10428000050001208DF8070069460248FEF70AFB89
:104290001CBD0000000C024001B502E00098401E69
:1042A000009000980028F9D108BD70472DE9FF4F14
:1042B00089B00D461646099C24B96FF004000DB074
:1042C000BDE8F08F204629680CF0EAF88146B9F184
:1042D000000F02DA6FF00500F1E728684844286013
:1042E000204629680CF06AFA8246BAF1000F06DA15
:1042F00020460C99FFF7D9FF6FF00600DFE728682A
:104300005044286009EB0A013068401A3060D4F844
:10431000B80710B1D4F8B007A8B3D4F8B00750BBB1
:104320000120C4F8B00732682B68A3EB0903A3EBA4
:104330000A01286800F04CF9C4F8B407D4F8B407AF
:10434000002806DA20460C99FFF7AFFF6FF0020055
:10435000B5E704F2B4742068484450440690D4E9A8
:1043600004104143E26806984243D00090FBF1F00C
:104370006060A4F2B47420460AF099F9D4F8B41736
:104380000844C4F8CC07169808B33068C4F8CC07C2
:10439000D4F8D80718B9D4F8CC07002806DC204692
:1043A0000C99FFF782FF6FF0050088E7D4F8CC077F
:1043B000C4F8DC07286802902868D4F8CC170844B1
:1043C00028603068D4F8CC17401A30605FE0D4F829
:1043D000CC073168884206DD20460C99FFF765FF5F
:1043E0004FF0FF306BE7D4F8D817D4F8DC078842D9
:1043F0002BDB04F11C00D4F8DC371844D4F8D83790
:10440000C11A1A4604F11C00FCF75CFBD4F8CC2757
:10441000296804F11C03D4F8D8C70CEB0300FCF79F
:1044200051FB04F2CC742168E068084420612868DC
:1044300021680844286030682168A4F2CC74401ACE
:10444000306004F11C00029021E0D4F8CC272968E8
:1044500004F11C03D4F8DCC70CEB0300FCF732FBBF
:1044600004F2CC742168206908442061286821681E
:104470000844286030682168A4F2CC74401A306087
:1044800020460C99FFF711FF6FF0010017E700209D
:104490000890D4F8DC07C0000790002791E04FF0A7
:1044A000000850E008980590CDE9007808AA204659
:1044B000079B02990CF0EEF883460598C0EBCB0001
:1044C00008990844049004F5FC6000EBC70050F81C
:1044D00028100498081A03900298584402900799EB
:1044E0000498081A0790BBF1000F03DB03990798A3
:1044F000884206DA20460C99FFF7D7FE6FF00700D6
:10450000DDE608980590CDE9007808AA2046DDE9A7
:1045100002130AF0DAF88346BBF1000F06DA2046F0
:104520000C99FFF7C2FE6FF00800C8E602985844E5
:1045300002900598C0EBCB00089901440798401AF7
:10454000079008F10108D4F8BC074045AADC3946B9
:1045500020460AF003FB002806DA20460C99FFF7F4
:10456000A4FE6FF00900AAE64FF000080FE04246F3
:10457000394620460BF0F2FA002806DA20460C995C
:10458000FFF793FE6FF00A0099E608F10108D4F8EE
:10459000BC074045EBDCD4F8C8077843D4F8BC2707
:1045A00050430C9A02EB400120460BF0EFFE00282E
:1045B00006DA20460C99FFF778FE6FF00B007EE6D6
:1045C0007F1CD4F8C407B8423FF769AF002076E6F5
:1045D0002DE9F04106460D4617464FF000083446D7
:1045E00027E03946204600F025F880464444B8F1DB
:1045F000000F03DA4FF0FF30BDE8F0812078297812
:10460000884212D16078697888420ED1A07800F093
:10461000FC00A97801F0FC01884206D1A878C0F31B
:10462000400000B1641EA01BE6E7E41C08F1030093
:104630003F1AD6E702460B4600210BE0505CFF28EC
:1046400007D1481C105C00F0E000E02801D10846CA
:104650007047491C581E8842F0DC4FF0FF30F7E7E6
:1046600010B50246104618B1D0F8D037032B08D049
:1046700000230B604B608B60CB600B614B618B61E7
:104680001CE000F5F76003680B6043684B608368CB
:104690008B601023CB60037F03EB4303084C04EBD8
:1046A000430483695B1E34F91330446863430B6130
:1046B00083694B61037FA0F5F7608B6110BD00003B
:1046C000124E030810B509F09FFF0446204610BDA6
:1046D00000BFFEE710B504460120FDF703FF2246A8
:1046E000034801780420FDF7D1FE002010BD000032
:1046F0005000002010B504462046FDF7E4FE10BD32
:104700002DE9F04397B006460027B84600200390F5
:10471000002581460620FCF7CDF9FFF7D3FFCA49F3
:1047200008603146C94807F091FD68B10020FFF7E5
:1047300019F90120C6A31022142100902820FFF7A8
:1047400021FD17B0BDE8F0830D2009F057F9804630
:104750001EE0BE488779C24907F0AEFE044614B990
:10476000BF48407A00B914E0DFF8F48208F1090884
:10477000BCA14046FCF7E4F950B10CA89DF80C1020
:1047800047549DF80C00401CC0B20390681CC5B291
:10479000DFE700BF681EC5B24FF00008002003909D
:1047A0003146AA4807F052FD044647E1002078232D
:1047B000BE22582100900120FFF7E0F90CA89DF8D7
:1047C0000C20815CA14806F048FFA5499F4807F0EE
:1047D00073FE044614B9A248407A00B931E1DFF80B
:1047E000808208F10908314604A8FCF7DCF99FA192
:1047F00004A8FCF799F9414604A8FCF795F99DF83F
:104800000C009B4908700020102104AA0346CDE942
:10481000002102904FF6FF726221142001F0ECFE9D
:1048200000208723C2227B2100909020FFF7A6F969
:104830000C20022300909DF80C20521C7B2190201C
:10484000FFF748FC012089A30C227B210090A020C7
:10485000FFF798FC0C2002236A1C7B210090AA2001
:10486000FFF738FC09F03EFB012204A9814807F05C
:1048700021FC40B1012080A3102246210090282075
:10488000FFF780FCDAE00020804908608048814919
:10489000086016AB4FF47A620146764807F00EFDC9
:1048A00004467A48006816990844784908600CB9AB
:1048B000169800B9C5E001207749086000207749C3
:1048C0000870774908704AF64440FFF703FF93E009
:1048D0006E4801686F480068FFF7ACFE71490860D8
:1048E00008460068002800DA87E06A4800686D49D9
:1048F00009680844674908606448006869490968AC
:10490000401A6249086008460068B0F57A6F33DAE9
:10491000084602685F4801685D48FCF7D3F85B48C9
:104920000068C0F57A625A48584B1B68C11816AB2C
:10493000504807F0C3FC04460CB9169800B95CE077
:1049400052480068C0F57A60169988420DD94F4ADE
:104950001268C2F57A62169BD11A4D4A4B4B1B68FE
:104960001A44169BD018FCF7D4F84FF47A604749E4
:1049700008604748474908604B4933480068FFF7DB
:104980006FFE00BF444800680028FBD00020424969
:1049900008604248007888B94FF490514348FCF7CA
:1049A0009DFB0020424B394A3A4900902648006856
:1049B000FFF77CFC01203949087010E04FF490515A
:1049C0003B48FCF78BFB0020384B304A31490090C4
:1049D0001D480068FFF76AFC00203049087000207D
:1049E000FEF724FF81462A4603A9484609F0A0F8AD
:1049F0000746012F00D100E06AE700BF2D4800788C
:104A000001280FD1B9F1000F18D19DF80C00A84270
:104A100002D10020039011E09DF80C00401CC0B2B0
:104A200003900BE023480078032807D1FCF738F8FF
:104A300090FBF5F105FB1100C0B20390002C3FF490
:104A4000B5AE00BF00BF7CE6340000202C51002032
:104A5000665F6F70656E646972206572726F720056
:104A6000EC5000202E6D7033000000002F0000007D
:104A70004A000020A4480020665F6F70656E206DBC
:104A800075736963206572726F72000038000020D0
:104A9000B4B600203C0000204C0000203000002074
:104AA000480000204000002098B6002054D8002084
:104AB00054C600204900002010B50220FDF780FDFB
:104AC00010BD000010B50120FDF77AFD00200C4953
:104AD00008700C49087007200B49087001200B4929
:104AE000087000200A4908600A4908700022022163
:104AF000094801F0A2FE0021084607F0C5FA10BDE2
:104B000005000010510000200200002000000020DD
:104B100060000020010000200008004010B504469D
:104B20002046FDF767FD002010BD704770B50021DD
:104B300000230F22C4781CB3174C246804F4E064EB
:104B4000C4F5E064C4F30721C1F10404E3B20A41EF
:104B500044789C40E1B28478144021430C07210E34
:104B60000E4C05786155047804F01F050124AC4013
:104B700005786D11AD0005F1E025C5F8004109E0AB
:104B8000047804F01F050124AC40054D0678761129
:104B900045F8264070BD00000CED00E000E400E0A8
:104BA00080E100E002490143024A116070470000C1
:104BB0000000FA050CED00E0024A0A400243024BF5
:104BC0001A60704780FFFF1F08ED00E010B500F08D
:104BD00013F800F0B9FC00F0E1FC00F001FD00F07A
:104BE00089FC00F049FC00F095FD00F039FD00F073
:104BF0005FFD00F002F810BD70477047064800786E
:104C0000012808D105480078FF2804D2034800781D
:104C1000401C0249087070479E000020910000204F
:104C200010B500241A480078012830D1FBF7D4FED3
:104C300004461848007820B116480078401E1549EF
:104C4000087014480078F8B913480078E0B900F00B
:104C5000C3FD12481249097850F821001149086033
:104C60000F4800781049097888420DD00D48006837
:104C7000806B401C0B49096888630C480068401C25
:104C80000A490860FBF7C8FE2046FBF7A9FE10BDE5
:104C90009E0000209100002092000020ACEF002038
:104CA00094000020AC000020930000207800002039
:104CB00010B500240B480078012811D1FBF78CFEB9
:104CC00004460948007840B908480078FF2804D213
:104CD00006480078401C054908702046FBF780FE16
:104CE00010BD00009E0000209100002092000020D6
:104CF00010B5002413480078012821D1FBF76CFE81
:104D0000044611480078C0B10F480078401E0E4993
:104D100008700846007860B90C48007828B9204629
:104D2000FBF75EFE00F01EFD0AE02046FBF758FE92
:104D300006E02046FBF754FE02E02046FBF750FE5B
:104D400010BD00009E000020920000209100002075
:104D500010B50B48007890B900F03EFD0948007886
:104D60000949087009480749097850F8210008499D
:104D700008600846006807490860FBF734FE10BD6C
:104D80009E0000209400002093000020ACEF002043
:104D9000AC000020A400002010B50024022000F088
:104DA000A1FAFBF719FE044600200B4908602046D3
:104DB000FBF716FE142000F095FAFBF70DFE0446F3
:104DC000054800680549086001200549087020462B
:104DD000FBF706FE10BD0000A000002088000020A8
:104DE00090000020704700002DE9FE4F06460F4658
:104DF00090461C464FF00009FBF7EEFD81461F4828
:104E0000007828B14846FBF7EBFD3C20BDE8FE8F5B
:104E10001B4850F8240060BB0120194941F82400C8
:104E20004846FBF7DDFD002342463946304600F098
:104E3000B5F9824600200090019003460246514693
:104E40000290204600F0DEFC054635B90D4800789A
:104E500001280CD100F086FC09E0FBF7BDFD81467E
:104E60000020074941F824004846FBF7B9FD2846D1
:104E7000CCE74846FBF7B4FD2820C7E791000020A7
:104E8000ACEF00209E0000202DE9F04F85B0814658
:104E90008A4693461C46DDE90F78129D0020039058
:104EA000FBF79AFD03902348007830B10398FBF795
:104EB00097FD3C2005B0BDE8F08F1F4850F8240056
:104EC00088BB01201C4941F824000398FBF788FDAA
:104ED0002A464146384600F0B1FD2B465A46514617
:104EE000484600F05BF904901198CDE900800295E6
:104EF0003A4620460E9B049900F084FC064636B9DB
:104F00000E48007801280CD100F02CFC09E0FBF7DA
:104F100063FD03900020084941F824000398FBF743
:104F20005FFD3046C6E7FFE70398FBF759FD2820F1
:104F3000C0E7000091000020ACEF00209E000020A0
:104F4000704700002DE9F0410546002747480078EA
:104F500010B14020BDE8F0813F2D01D13E20F9E79E
:104F6000FBF73AFD0746FF2D03D14148006890F852
:104F70003250404850F8254024B93846FBF730FD00
:104F80004320E7E7012C04D13846FBF729FD3D20FB
:104F9000E0E714F8340F3849085C617888432178D9
:104FA000354A505414F834091146085C30B994F865
:104FB000361032480078884330490870E06918B1EB
:104FC0002046E16900F042FA666A16B1304600F008
:104FD0007FFA0020E06284F8300084F8310028482D
:104FE0000078FF2804D226480078401C2449087025
:104FF0003846FBF7F5FC00F028FAFBF7EDFC074616
:105000001F48007820B11E480078401E1C490870D7
:10501000204600F041F81B480078401E19490870EE
:105020000020144941F82500A06930B900206169C9
:10503000886115496069086005E0D4E905014861A7
:10504000D4E9051088611148006860610F48046068
:105050000FA0E0643846FBF7C3FC0E480078012837
:1050600001D100F07FFB002074E7000091000020D8
:10507000A4000020ACEF0020960000209500002046
:10508000920000209F000020B0000020A800002017
:105090003F0000009E000020704770472DE9F0415E
:1050A00006460F4614464FF000081548007818B120
:1050B00012202070BDE8F081FBF78EFC8046FF2EA9
:1050C00003D11048006890F832600F4850F826501D
:1050D0002DB94046FBF784FC43202070EAE7012D00
:1050E00005D14046FBF77CFC43202070E2E7EF64EB
:1050F0004046FBF775FC0020207000BFDAE7000097
:1051000091000020A4000020ACEF00207047704701
:105110002DE9F04707460D464FF0000A00202860B1
:105120006860FBF759FC8246FF2F03D119480068DD
:1051300090F83270184850F827402CB95046FBF7C9
:105140004FFC4320BDE8F087012C04D15046FBF70B
:1051500047FC4320F6E7207C00F0010020B95046D0
:10516000FBF73EFC4520EDE70026D4F80C90D4F880
:1051700008805046FBF734FC00E0761C58F8041B0E
:105180000029FAD0B0002860A9EB06008000686012
:105190000020D7E7A4000020ACEF002070B5044643
:1051A00010464FF080750560051F28462C60214E83
:1051B000051F28462E604FF01236051F28462E6028
:1051C0004FF00336051F28462E604FF00236051FAC
:1051D00028462E607610051F28462E60051F28469B
:1051E00029604FF01136051F28462E604FF010360B
:1051F000051F28462E604FF00936051F28462E60F1
:105200004FF00836051F28462E604FF00736051F61
:1052100028462E604FF00636051F28462E604FF0B8
:105220000536051F28462E604FF00436051F284618
:105230002E6070BD615900082DE9F04105464FF020
:105240000008FBF7C9FB8046FF2D05D12048006808
:1052500090F83250012608E01D48006890F83200AE
:10526000A84201D1012600E000261A4850F8254046
:105270002CB94046FBF7B4FB4820BDE8F081012C77
:1052800004D14046FBF7ACFB4320F6E794F83470BA
:105290001148C05D94F8351088430F49C855084639
:1052A000C05D30B994F836100C48007888430B493B
:1052B000087094F8300040F0080084F83000404650
:1052C000FBF78EFB012E01D100F04CFA0020D4E751
:1052D000A4000020ACEF00209600002095000020E4
:1052E0007047000070B5054600261748007800B1E9
:1052F00070BD1648007800B1FAE71DB3FBF76CFBF0
:1053000006461348006890F834401248005D104982
:10531000096891F8351088430E4908550846005D24
:1053200040B90B48006890F836100B480078884365
:105330000949087006480068C5623046FBF750FB13
:1053400000F010FA00BFD3E7910000209200002087
:10535000A4000020960000209500002070B50026D3
:1053600000F072F8FBF738FB064631480068401C35
:105370002F4908603046FBF733FB2E4800780128A0
:1053800053D12D48007820B1012804D0022809D13A
:1053900003E001250BE0002509E001250120264955
:1053A000087004E0012500202349087000BF00BFF9
:1053B00005B970BD2148046833E0FBF70DFB0646D4
:1053C000E06A50B3E06A401EE062E06A28BB94F8ED
:1053D000300000F0370040B114F8300F00F0C80082
:1053E000207001206070303C02E0002084F8310021
:1053F00094F8300000F0080078B93434A0781049EF
:10540000097808430E49087020780E49085C6178D5
:10541000084314F834190B4A505464693046FBF7BA
:10542000DFFA94F832003F28C7D100BFC1E700007F
:10543000BC0000209E000020B4000020B00000202E
:1054400095000020960000207047704710B590F836
:10545000342001F10B039B5C90F83540A34301F12C
:105460000B04A35423469B5C23B98B7A90F83640F7
:10547000A3438B7210BD00002DE9F041502111486B
:1054800000F03EF900250DE0681C86B20D4800EBE7
:10549000051400EB06170020207067600AA0E0608A
:1054A000681C85B2042DEFD3064800EB05140020DC
:1054B0002070606004A0E060024804490860BDE814
:1054C000F08100005CEB00203F0000008000002025
:1054D00030B501464A6808682AB9CC68606028B1CE
:1054E0000025456002E0106000B142608B68002535
:1054F0005D6230BD70B5C821114800F001F900238C
:105500000FE0581C85B203EB83000D4901EB8004CA
:1055100005EB850001EB8006002020706660581CBA
:1055200083B2092BEDD303EB8300054901EB800423
:1055300000202070606008460249086070BD0000CD
:1055400094EA00207C00002000200A4908600A49F3
:1055500008700A4908700A4908700A4908700A491F
:1055600008600A4908600A4908600A4908600A494F
:1055700008707047BC0000209100002092000020BD
:105580009F0000209E00002078000020A000002046
:105590008C000020880000209000002000210A4A92
:1055A0001170002004E00021084A1154411CC8B2C7
:1055B0000828F8D30021064A1170064A1170064ADD
:1055C0001160064A11607047950000209600002087
:1055D0009300002094000020AC000020A4000020D4
:1055E00070B54FF47C71194800F08AF84FF480715F
:1055F000174800F085F8002413E0601CC5B2C4EB26
:10560000C40000EB4000114901EB8003C5EBC5006D
:1056100000EB400001EB80065E610EA0D864601CC8
:10562000C4B20B2CE9D3C4EBC40000EB4000074923
:1056300001EB80030020586106A0D86400200649D1
:10564000086002480549086070BD0000ACF0002009
:10565000ACEF00203F000000B0000020A8000020B8
:1056600000B587B00320002180220A4BCDE901322A
:10567000CDE903104FF6FF703F23074A009007481B
:10568000FFF702FC06AA06A13F20FFF707FD07B0BF
:1056900000BD0000ACED0020A8EF00203959000843
:1056A00075432F4F532D49492049646C6500000014
:1056B00000B587B00320002180220A4BCDE90132DA
:1056C000CDE903104FF6FE703E23074A00900748CD
:1056D000FFF7DAFB06AA06A13E20FFF7DFFC07B0C2
:1056E00000BD0000ACEB0020A8ED002079590008B7
:1056F00075432F4F532D49492053746174000000A6
:1057000004E0002200F8012B4A1E91B20029F8D1D2
:10571000704700002DE9F04178211048FFF7F0FFB5
:1057200000240DE0601C86B204EB44000B4901EB41
:10573000C00506EB460001EBC0072F60601C84B279
:10574000042CEFD304EB4400044901EBC005002016
:105750002860084602490860BDE8F0819CF40020FA
:10576000B800002010B50024FBF736F904461348B2
:105770000078F8B912480078E0B900F02DF8114827
:105780001149097850F82100104908600E48007846
:105790000F49097888420DD00C480068806B401C86
:1057A0000A49096888630B480068401C0949086079
:1057B000FBF72BF92046FBF713F910BD91000020F1
:1057C00092000020ACEF002094000020AC000020EC
:1057D00093000020780000200649074A1278885C70
:1057E0000649095C034A515C01EBC001044A11708F
:1057F00070470000B45A030895000020960000206E
:10580000940000202DE9F84F05460F469046994632
:10581000DDE90AAB00200090FBF7DEF800903F487E
:105820000468002C74D0183454F8040C3B49086008
:105830000098FBF7D5F844F8187CA5760020207670
:105840006076606144F814BC44F80CAC44F8108CE9
:105850000C9824F8080C24F8069C0020E077E81047
:10586000207705F00700E076217F01208840A077AF
:10587000E17E01208840607700206060E060A060E9
:105880002062A0626062E062206325A06063183C31
:10589000002606E0002104F1500040F82610701C9C
:1058A000C6B2002EF6D02046FFF79CFA2046FFF73E
:1058B00047FBFBF791F800901A4840F825401A483A
:1058C000006860610020A0611748006810B11648A8
:1058D00000688461144804603434A078134909785E
:1058E00008431249087020781149085C6178084320
:1058F00014F834190E4A50540E480078401C0D49D3
:1059000008700098FBF76CF80020BDE8F88FFFE7FF
:105910000098FBF765F84220F7E70000A800002098
:105920003F000000ACEF0020B000002095000020F8
:10593000960000209F000020002400BF00BFFBF75E
:105940004BF8044605480068401C0449086020469E
:10595000FBF746F8FFF7A1FBF1E70000A0000020ED
:1059600010B504480068FFF7D1FBFF20FFF7EAFA03
:1059700010BD0000A4000020002400BF02E0282089
:10598000FFF7B0FC194800780028F8D018480068E4
:105990006421B0FBF1F0164908600846006828B998
:1059A000002014490870FF20FFF746FC00BFFBF7FA
:1059B00013F80446104800681049086000200E499A
:1059C00008602046FBF70CF80C4800680849096895
:1059D000B0FBF1F0C0F1640006490870FFF797FBD7
:1059E00000F00EF81420FFF77DFCE0E790000020A7
:1059F0008800002084000020A00000208C000020EF
:105A00007CB5002514E069462846FFF781FB064671
:105A100066B9094850F8254044B1012C06D0D4E9B4
:105A2000020100EB810060640198A064681CC5B2AB
:105A30003F2DE8D97CBD0000ACEF002002F001034F
:105A400043B102F002032BB102E0491E002308C05B
:105A50000029FAD17047000010B5024802F068FB37
:105A600010BD00001C1100200EB551E029A0FCF76C
:105A7000D3FC002010212AA20346CDE90021029088
:105A80001F223C21282000F0B7FD0020102128A271
:105A90000346CDE9002102901F225021282000F06A
:105AA000ABFD0020102126A20346CDE90021029083
:105AB0001F226421282000F09FFD0020102124A235
:105AC0000346CDE9002102901F227821282000F012
:105AD00093FD1CE00020FDF7A9FE21490870142069
